S015000035444F465F726F626F7461726D2E737265633C
S11300000C94B6000C94D3000C94D3000C94D3003D
S11300100C94D3000C94D3000C94D3000C94D30010
S11300200C94D3000C94D3000C94D3000C94FE0FC6
S11300300C94D3000C94D3000C940C100C94D300A7
S11300400C94D3000C94D3000C9422100C94D30081
S11300500C94D3000C94D3000C94D3000C94D300D0
S11300600C94D3000C94D300072C7AA5BA6CC590D9
S1130070DA3B9365FC8BBC53F810FD3C5692834DE0
S1130080BD879D3AB63DCBC9BF5BBE73DA0FC93F8E
S113009005A84CCDB2D44EB93836A9020C50B9914A
S11300A08688083CA6AAAA2ABE000000803F0763EF
S11300B04236B79BD8A71A39685618AEBAAB558CD6
S11300C01D3CB7CC5763BD6DEDFD753EF61772311F
S11300D0BF000000803F08000000BE922449123E89
S11300E0ABAAAA2ABECDCCCC4C3E00000080BEAB4D
S11300F0AAAAAA3E00000000BF000000803F000042
S1130100000000084178D3BB4387D1133D190E3C4E
S1130110C3BD4282AD2B3E68EC8276BED98FE1A985
S11301203E4C80EFFFBE01C4FF7F3F000000000093
S11301304E414E494E495459494E46CDCCCC3D0AC8
S1130140D7233C17B7D13877CC2B329595E6241FAB
S1130150B14F0A000020410000C84200401C462064
S1130160BCBE4CCA1B0E5AAEC59D740011241FBEE2
S1130170CFEFD8E0DEBFCDBF13E0A0E0B1E0E8E60A
S1130180F3E302C005900D92AC30B107D9F723E038
S1130190ACE0B3E001C01D92AE3DB207E1F70E94AE
S11301A0550C0C94B2190C940000CF92DF92EF928C
S11301B0FF926B017C0120914401309145014091F3
S11301C046015091470160E070E084E393E40E94AB
S11301D0E110A70196010E94BF12FF90EF90DF90FB
S11301E0CF9008951092C50087E68093C40088E9F3
S11301F08093C10086E08093C20008959091C0006E
S113020095FFFCCF8093C6000895CF93DF93EC0154
S113021003C00E94FE00219688818111FACFDF91EC
S1130220CF910895DF92EF92FF920F931F93CF9394
S1130230DF93CDB7DEB728970FB6F894DEBF0FBEB5
S1130240CDBF7B012CE230E038872F83BE01695F8C
S11302507F4F0E9410159A838983D12C14C0D394A4
S11302600D2D10E0BE01695F7F4F80E090E00E9499
S11302701015000F111FE1E0F0E0EC0FFD1FE00F7F
S1130280F11F91838083ED2DF0E0EE0FFF1F81E0DD
S113029090E08C0F9D1FE80FF91F80819181892BBD
S11302A0F1F689819A810E940C15F70160837183AC
S11302B0828393838B819C810E940C15F701648354
S11302C07583868397838D819E810E940C15F70127
S11302D0608771878287938728960FB6F894DEBF6C
S11302E00FBECDBFDF91CF911F910F91FF90EF9083
S11302F0DF9008958FEF84B982E0809380009AE1C3
S11303009093810080936F008FE39CE99093870022
S113031080938600089587E880937A0080E4809330
S11303207C0008958770ECE7F0E09081987F892B3A
S11303308083EAE7F0E080818064808380917A00A2
S113034086FDFCCF8091780090917900089582E039
S113035084BD93E095BD99EF97BD80936E00089599
S11303608F929F92AF92BF92CF92DF92EF92FF92C1
S1130370CF93DF93EC01688179818A819B819B0112
S1130380AC010E94BF126B017C016C817D818E8166
S11303909F819B01AC010E94BF129B01AC01C7016C
S11303A0B6010E946B106B017C01688579858A8592
S11303B09B859B01AC010E94BF124B015C01A5010E
S11303C09401C701B6010E946B100E948A13DF9149
S11303D0CF91FF90EF90DF90CF90BF90AF909F9020
S11303E08F900895CF92DF92EF92FF920F931F9315
S11303F0CF93DF938C01EB01FC01608171818281D9
S11304009381288139814A815B810E94BF126B01EB
S11304107C01F80164817581868197812C813D81FD
S11304204E815F810E94BF129B01AC01C701B601DE
S11304300E946B106B017C01F801608571858285D7
S11304409385288539854A855B850E94BF129B0167
S1130450AC01C701B6010E946B10DF91CF911F91CF
S11304600F91FF90EF90DF90CF900895EF92FF925D
S11304700F931F93CF93DF93EC017B018A01FB0160
S11304806081718182819381FA012081318142816D
S113049053810E946A10688379838A839B83F7015E
S11304A06481758186819781F80124813581468133
S11304B057810E946A106C837D838E839F83F7012A
S11304C06085718582859385F80120853185428513
S11304D053850E946A10688779878A879B87CE0133
S11304E0DF91CF911F910F91FF90EF9008952F927C
S11304F03F926F927F928F929F92AF92BF92CF92D0
S1130500DF92EF92FF920F931F93CF93DF9300D06C
S113051000D000D0CDB7DEB71C014B015A01C12C6D
S11305207AC0E0E1CE9EC00111243C016A0C7B1C20
S1130530820D931D9E838D83FC0160817181828174
S113054093810D2D10E0000F111F000F111F740176
S1130550E00EF11EF70120813181428153810E9416
S1130560BF1269837A838B839C83ED81FE816481CE
S1130570758186819781F701208931894289538960
S11305800E94BF129B01AC0169817A818B819C819D
S11305900E946B1069837A838B839C83ED81FE8137
S11305A06085718582859385F70120A131A142A1DF
S11305B053A10E94BF129B01AC0169817A818B8196
S11305C09C810E946B1069837A838B839C83ED8169
S11305D0FE816485758586859785F70120A931A9F3
S11305E042A953A90E94BF129B01AC0169817A817F
S11305F08B819C810E946B10F301E00FF11F6083DB
S1130600718382839383D39401C0D12CF3E0FD15CD
S113061008F087CFC39423E02C15B8F726960FB6BD
S1130620F894DEBF0FBECDBFDF91CF911F910F9124
S1130630FF90EF90DF90CF90BF90AF909F908F90FE
S11306407F906F903F902F9008958F929F92AF92DA
S1130650BF92EF92FF920F931F93CF93DF93EC011E
S11306608B017A01688179818A819B81F8012081DB
S11306703181428153810E94BF124B015C016C8124
S11306807D818E819F81F801248135814681578146
S11306900E94BF129B01AC01C501B4010E946B1002
S11306A04B015C01688579858A859B85F8012085E5
S11306B03185428553850E94BF129B01AC01C5015F
S11306C0B4010E946B102C853D854E855F850E9488
S11306D06B10F701608371838283938368897989BE
S11306E08A899B89F80120813181428153810E944A
S11306F0BF124B015C016C897D898E899F89F80149
S113070024813581468157810E94BF129B01AC012F
S1130710C501B4010E946B104B015C01688D798D99
S11307208A8D9B8DF80120853185428553850E94F1
S1130730BF129B01AC01C501B4010E946B102C8D4A
S11307403D8D4E8D5F8D0E946B10F7016483758320
S11307508683978368A179A18AA19BA1F80120814E
S11307603181428153810E94BF124B015C016CA113
S11307707DA18EA19FA1F8012481358146815781F5
S11307800E94BF129B01AC01C501B4010E946B1011
S11307904B015C0168A579A58AA59BA5F801208574
S11307A03185428553850E94BF129B01AC01C5016E
S11307B0B4010E946B102CA53DA54EA55FA50E9417
S11307C06B10F7016087718782879387DF91CF91E0
S11307D01F910F91FF90EF90BF90AF909F908F90DB
S11307E008954F925F926F927F928F929F92AF92F1
S11307F0BF92CF92DF92EF92FF920F931F93CF930A
S1130800DF93CDB7DEB7C854D1090FB6F894DEBF75
S11308100FBECDBF7C018B01DC018D909D90AD900E
S1130820BC9020E030E0A901C501B4010E94D710BA
S113083081110DC0F701648175818681978120E063
S113084030E0A9010E94D710882309F42AC28DA29E
S11308509EA2AFA2B8A6F70184819581A681B78133
S113086089A79AA7ABA7BCA71DA61EA61FA618AA50
S1130870CE0185960E94B0019B01AC01D7016D9118
S11308807D918D919C910E94E1100E9459104B0121
S11308905C01F8016083718382839383D70114968A
S11308A06D917D918D919C91179720E030E0A90185
S11308B00E94D71088234CF4B7FAB094B7F8B094D8
S11308C0F80180829182A282B382198E1A8E1B8EC5
S11308D01C8E1D8E1E8E1F8E18A280914001909139
S11308E04101A0914201B091430189A39AA3ABA312
S11308F0BCA3AE01475E5F4FB701CE010D960E94C7
S11309003602CE010D960E94B0016B017C018090ED
S11309103C0190903D01A0903E01B0903F01809138
S1130920380190913901A0913A01B0913B0189AB12
S11309309AABABABBCAB9C01AD01C501B4010E9449
S11309406B109B01AC01C701B6010E94BA121816C4
S11309500CF4A5C119821A821B821C821D821E827C
S11309601F82188680E090E0A0E8BFEB89879A8711
S1130970AB87BC87BE016F5F7F4FCE010D960E948F
S1130980F201A70196010E94E1100E9459106DAB7B
S11309907EAB8FAB98AFA5019401C501B4010E9451
S11309A0BF1269AF7AAF8BAF9CAFA7019601C701A5
S11309B0B6010E94BF1221966CAF7DAF8EAF9FAF80
S11309C021979B01AC0169AD7AAD8BAD9CAD0E94C2
S11309D06B102B013C0129A93AA94BA95CA9CA01B6
S11309E0B9010E94BF1225966CAF7DAF8EAF9FAF49
S11309F025979B01AC01C301B2010E946A102B012F
S1130A003C01A5019401C501B4010E946B109B0136
S1130A10AC01C701B6010E94BF129B01AC01C30126
S1130A20B2010E94E1100E9459106B017C019B01EC
S1130A30AC016DA97EA98FA998AD0E946B102B0102
S1130A403C01D80114966D937D938D939C931797D5
S1130A50A70196016DA97EA98FA998AD0E946A107D
S1130A606B017C01F801608771878287938780918D
S1130A70440190914501A0914601B09147018DAB8D
S1130A809EABAFABB8AF20E030E040E05FE3BC0129
S1130A90CD010E94BF1229966CAF7DAF8EAF9FAF80
S1130AA029979B01AC01C301B2010E946A102B017A
S1130AB03C0177FA709477F87094D80114964D92AB
S1130AC05D926D927C92179729962CAD3DAD4EADFB
S1130AD05FAD2997C701B6010E946A106B017C01C2
S1130AE0F7FAF094F7F8F094F801C086D186E2861C
S1130AF0F38625962CAD3DAD4EAD5FAD259769AD22
S1130B007AAD8BAD9CAD0E946B1021962CAD3DADA2
S1130B104EAD5FAD21970E946A1069AF7AAF8BAF7B
S1130B209CAF29A93AA94BA95CA9CA01B9010E94A1
S1130B306B109B01AC01C501B4010E94BF129B0163
S1130B40AC0169AD7AAD8BAD9CAD0E94E1100E9401
S1130B5059109B01AC01D8011C966D937D938D9324
S1130B609C931F976DA97EA98FA998AD0E946A10C6
S1130B7069AB7AAB8BAB9CABF801648775878687CE
S1130B809787DC01CB01B058808B918BA28BB38B00
S1130B9080809180A280B380A5019401C501B40135
S1130BA00E94CA1381117BC0A3019201C301B20147
S1130BB00E94CA13811173C0A7019601C701B6012F
S1130BC00E94CA1381116BC029A93AA94BA95CA937
S1130BD0CA01B9010E94CA13811161C0E894B7F82F
S1130BE02FEF3FEF4FE75FE7C501B4010E94CA133F
S1130BF081110BC02FEF3FEF4FE75FE7C501B40151
S1130C000E94D71018160CF44AC053014201E8940C
S1130C10B7F82FEF3FEF4FE75FE7C501B4010E943C
S1130C20CA1381110AC02FEF3FEF4FE75FE7C501F9
S1130C30B4010E94D710181694F1E894F7F82FEF36
S1130C403FEF4FE75FE7C701B6010E94CA13811166
S1130C500AC02FEF3FEF4FE75FE7C701B6010E94DD
S1130C60D7101816E4F049A85AA86BA87CA8E894F1
S1130C7077F82FEF3FEF4FE75FE7C301B2010E9420
S1130C80CA1381110AC02FEF3FEF4FE75FE7C3019B
S1130C90B2010E94D710181614F081E003C080E05E
S1130CA001C080E0C85BDF4F0FB6F894DEBF0FBE13
S1130CB0CDBFDF91CF911F910F91FF90EF90DF9007
S1130CC0CF90BF90AF909F908F907F906F905F90E8
S1130CD04F9008952F923F924F925F926F927F921E
S1130CE08F929F92AF92BF92CF92DF92EF92FF9238
S1130CF00F931F93CF93DF93CDB7DEB7CC5CD14076
S1130D000FB6F894DEBF0FBECDBFFC011B018A01F4
S1130D104080518062807380213089F4C480D58002
S1130D20E680F78084859585A685B785C753DE4F11
S1130D3088839983AA83BB83C95CD14010C0C084D3
S1130D40D184E284F38480899189A289B389C753C9
S1130D50DE4F88839983AA83BB83C95CD14084898D
S1130D609589A689B789CF53DE4F88839983AA834F
S1130D70BB83C15CD140C301B2010E94DC104B01B2
S1130D805C0169837A838B839C831D821E821F820C
S1130D901886C301B2010E947C132B013C0177FA2F
S1130DA0709477F8709449865A866B867C861D8683
S1130DB01E861F86188A698B7A8B8B8B9C8B1D8A67
S1130DC01E8A1F8A188E898E9A8EAB8EBC8E1D8EBB
S1130DD01E8E1F8E18A219A21AA21BA21CA280E0AA
S1130DE090E0A0E8BFEB8DA39EA3AFA3B8A719A67C
S1130DF01AA61BA61CA68091400190914101A091C6
S1130E004201B09143018DA79EA7AFA7B8AB19AA21
S1130E101AAA1BAA1CAA1DAA1EAA1FAA18AE19AE9A
S1130E201AAE1BAE1CAE0F2E412C512CF0E86F2EC7
S1130E30FFE37F2EF02D21964CAE5DAE6EAE7FAEFD
S1130E402197C701B6010E94DC104B015C01259675
S1130E506CAF7DAF8EAF9FAF2597C701B6010E94DF
S1130E607C136B017C01DC01CB01B05829968CAF5B
S1130E709DAFAEAFBFAF29972D961CAE1DAE1EAE73
S1130E801FAE2D9780913C0190913D01A0913E01B0
S1130E90B0913F01CB53DE4F88839983AA83BB83F0
S1130EA0C55CD1409C01AD01C501B4010E94BF12D3
S1130EB061966CAF7DAF8EAF9FAF61976596CCAEF8
S1130EC0DDAEEEAEFFAE659769968CAE9DAEAEAE6E
S1130ED0BFAE69976D961CAE1DAE1EAE1FAE6D976C
S1130EE0CB53DE4F288139814A815B81C55CD14077
S1130EF0C701B6010E94BF12A1966CAF7DAF8EAF41
S1130F009FAFA197A5961CAE1DAE1EAE1FAEA597B2
S1130F10A9961CAE1DAE1EAE1FAEA997AD964CAEE3
S1130F205DAE6EAE7FAEAD97E1961CAE1DAE1EAE4D
S1130F301FAEE197E5961CAE1DAE1EAE1FAEE59743
S1130F40E9961CAE1DAE1EAE1FAEE997ED961CAE23
S1130F501DAE1EAE1FAEED97C358DF4F48825982B7
S1130F606A827B82CD57D04020E030E040E05FE3EE
S1130F70609144017091450180914601909147012F
S1130F800E94BF129B01AC01C753DE4F6881798177
S1130F908A819B81C95CD1400E946B104B015C012A
S1130FA00E94DC106B017C01CF57DF4F688379838B
S1130FB08A839B83C158D040CB57DF4F1882198254
S1130FC01A821B82C558D040C501B4010E947C130B
S1130FD0C757DF4F688379838A839B83C958D0407E
S1130FE0C357DF4F188219821A821B82CD58D04012
S1130FF0CF56DF4F688379838A839B83C159D0405E
S1131000CB56DF4F188219821A821B82C559D040F1
S1131010F7FAF094F7F8F094C756DF4FC882D982F4
S1131020EA82FB82C959D040C356DF4F1882198225
S11310301A821B82CD59D040CF55DF4F18821982B6
S11310401A821B82C15AD040CB55DF4F4882598245
S11310506A827B82C55AD040C755DF4F18821982F5
S11310601A821B82C95AD040C355DF4F1882198295
S11310701A821B82CD5AD040CF54DF4F1882198276
S11310801A821B82C15BD040CB54DF4F1882198275
S11310901A821B82C55BD040C754DF4F1882198265
S11310A01A821B82C95BD040C354DF4F48825982E5
S11310B06A827B82CD5BD040CF53DE4F68817981D9
S11310C08A819B81C15CD1400E94DC106B017C0150
S11310D0CF53DF4F688379838A839B83C15CD0407D
S11310E0CF53DE4F688179818A819B81C15CD14075
S11310F00E947C134B015C01B7FAB094B7F8B0942A
S1131100CB53DF4F88829982AA82BB82C55CD040D0
S1131110C753DF4F188219821A821B82C95CD040E0
S1131120C353DF4F188219821A821B82CD5CD040D0
S1131130CF52DF4F688379838A839B83C15DD0401C
S1131140CB52DF4FC882D982EA82FB82C55DD04090
S1131150C752DF4F188219821A821B82C95DD040A0
S1131160C352DF4F188219821A821B82CD5DD04090
S1131170CF51DF4F188219821A821B82C15ED04080
S1131180CB51DF4F188219821A821B82C55ED04070
S1131190C751DF4F488259826A827B82C95ED04040
S11311A08091380190913901A0913A01B0913B01AD
S11311B0C351DF4F88839983AA83BB83CD5ED0401C
S11311C0CF50DF4F188219821A821B82C15FD04030
S11311D0CB50DF4F188219821A821B82C55FD04020
S11311E0C750DF4F188219821A821B82C95FD04010
S11311F0C350DF4F488259826A827B82CD5FD040E0
S1131200AE014F5F5E4FBE016F5B7F4FCE01019613
S11312100E947702AE014F5B5E4FBE016F577F4F56
S1131220CE018F5F9E4F0E947702AE014F575E4FF3
S1131230BE016F537F4FCE018F5B9E4F0E9477029A
S1131240A801B101CE018F579E4F0E942503D801FA
S1131250CD90DD90ED90FC90A7019601C701B601F9
S11312600E94CA13811160C0F80184809580A68011
S1131270B780A5019401C501B4010E94CA1381116C
S113128055C0D80118964D905D906D907C901B9739
S1131290A3019201C301B2010E94CA13811148C083
S11312A0E894F7F82FEF3FEF4FE75FE7C701B60188
S11312B00E94CA1381110AC02FEF3FEF4FE75FE787
S11312C0C701B6010E94D7101816A4F1E894B7F824
S11312D02FEF3FEF4FE75FE7C501B4010E94CA1348
S11312E081110AC02FEF3FEF4FE75FE7C501B4015B
S11312F00E94D710181604F1E89477F82FEF3FEF07
S11313004FE75FE7C301B2010E94CA13811116C0FF
S11313102FEF3FEF4FE75FE7C301B2010E94D71001
S1131320181664F480E00BC080E009C080E007C0B8
S113133080E005C080E003C080E001C081E0C453C8
S1131340DE4F0FB6F894DEBF0FBECDBFDF91CF9155
S11313501F910F91FF90EF90DF90CF90BF90AF90CF
S11313609F908F907F906F905F904F903F902F90C1
S113137008952F923F924F925F926F927F928F9235
S11313809F92AF92BF92CF92DF92EF92FF920F9310
S11313901F93CF93DF934A015B011901C82FD0E05B
S11313A021978E01000F111FCE01880F991F880FFE
S11313B0991F880F991F080F191F0A5F1E4FF80104
S11313C06281738180E090E00E9482116B017C0154
S11313D0F8016481758180E090E00E9482119B0194
S11313E0AC01C701B6010E946A102B013C0120E048
S11313F030E040E05FE360914401709145018091E9
S11314004601909147010E94BF129B01AC01C301A8
S1131410B2010E94E110A50194010E94BF129B0138
S1131420AC01C701B6010E946B10D62EC72EB82E90
S1131430A92EF8016085718580E090E00E948211F8
S1131440162F072FF82EE92E262F372F482F592F26
S11314506D2D7C2D8B2D9A2D0E94BA1288233CF081
S1131460C20DD31D188281E08D831A8635C0CE014A
S1131470880F991F880F991F880F991FFE01EE0F7F
S1131480FF1FE80FF91FEA5FFE4F6681778180E056
S113149090E00E948211162F072FF82EE92E262F96
S11314A0372F482F592F6D2D7C2D8B2D9A2D0E946F
S11314B0D71018163CF0C20DD31D188281E08D831D
S11314C01A860AC0C20DD31D81E088831D821A8644
S11314D01D2D0C2DFB2CEA2C212F302F4F2D5E2D92
S11314E0612F702F8F2D9E2D0E946B1020E030E015
S11314F040E05FE30E946B100E945311CB01DF9127
S1131500CF911F910F91FF90EF90DF90CF90BF90FC
S1131510AF909F908F907F906F905F904F903F908F
S11315202F900895DF92EF92FF920F931F93CF9322
S1131530DF937C01EB01D42E8901FC0140815181B0
S11315406281738181E00E94B90999838883F1E003
S1131550DF1217C0F70144815581668177819801B4
S113156082E00E94B9099B838A83F70144855585EB
S113157066857785980183E00E94B9099D838C83F1
S113158016C0F7014085518562857385980182E014
S11315900E94B9099B838A83F70140895189628932
S11315A07389980183E00E94B9099D838C83F701B4
S11315B04489558966897789980184E00E94B9092C
S11315C09F838E83F701408D518D628D738D9801B9
S11315D085E00E94B90999878887DF91CF911F918F
S11315E00F91FF90EF90DF900895EF92FF920F9389
S11315F01F93CF93DF93F62EEA01E22E209104018C
S113160030E04091020150910301B901640F751F4C
S113161068177907E0F4841B950B6091010170E071
S11316200E94F81480E090E00E94821120E030E0F3
S113163040E050E40E942C130E94531121E0E21276
S113164003C0C60FD71F26C0C61BD70B23C0BA01C1
S1131650621B730B86179707E8F49A01281B390B52
S1131660C9016091010170E00E94F81480E090E0EB
S11316700E94821120E030E040E050E40E942C13EC
S11316800E94531131E0E31203C0C61BD70B02C002
S1131690C60FD71F6F2D70E061507109FB01EE0F6B
S11316A0FF1FCB01880F991F880F991F880F991F5F
S11316B0E80FF91FEA5FFE4F80859185880F991F17
S11316C0C817D90740F0F801E60FF71F108221E090
S11316D02583128625C0CB01880F991F880F991F77
S11316E0880F991FFB01EE0FFF1FE80FF91FEA5F38
S11316F0FE4F86819781880F991F8C179D0740F0B4
S1131700F801E60FF71F108221E02583128608C036
S1131710F801E60FF71F81E0808315821286CE015F
S1131720DF91CF911F910F91FF90EF900895FC01ED
S113173010821182128213821482158216821782F9
S113174010861186128613861486158616861786C9
S1131750108A118A128A138A148A158A168A178A99
S1131760108E118E128E138E0895CF93DF93EC0199
S113177020913C0130913D0140913E0150913F0147
S11317806091400170914101809142019091430127
S11317900E946B10688379838A839B831C821D82D9
S11317A01E821F828091380190913901A0913A01E3
S11317B0B0913B0188879987AA87BB87DF91CF9136
S11317C008958AB1806E8AB908958BB180688BB907
S11317D08BB18F778BB908958BB180648BB98BB142
S11317E08F7B8BB90895FC018081813019F080E0F2
S11317F090E002C081E090E02581213009F482600C
S11318002285213009F484602181213009F4886023
S11318102681213009F480612385213009F4806216
S11318202281213009F480642781213009F4806801
S11318302485213009F491602381213009F49260D8
S11318402085213009F494602585213009F49860BD
S11318502481213009F490612185213009F49062BA
S11318602685213009F4906408950F931F93CF9334
S1131870DF938C01C0E0D0E00EC0112324F48BB1BF
S113188080628BB903C08BB18F7D8BB90E94E50B4D
S1131890000F111F2196C031D10578F30E94EC0B83
S11318A0DF91CF911F910F910895CF93DF93CDB71F
S11318B0DEB7C859D1400FB6F894DEBF0FBECDBF16
S11318C00E947A010E94F2000E948B010E94A701EB
S11318D00E94E10B789488E293E00E94970B8BEAD4
S11318E093E00E94B50B2DEC33E041E067EB73E02D
S11318F088E293E00E94920A8EE2E8E4F2E0DE01DC
S1131900119601900D928A95E1F7CE0101960E94FD
S113191005018091840090918500883E934008F4ED
S1131920B2C080918400909185008135944108F083
S1131930AAC020918400309185008091B7039091D2
S1131940B80328173907B8F085B12091060190E053
S1131950022E02C0959587950A94E2F780FF0BC08A
S113196035B181E090E002C0880F991F2A95E2F713
S11319708095832385B920918400309185008091DE
S1131980B9039091BA0328173907B8F085B12091AB
S1131990100190E0022E02C0959587950A94E2F713
S11319A080FF0BC035B181E090E002C0880F991F21
S11319B02A95E2F78095832385B92091840030919C
S11319C085008091BB039091BC0328173907B8F0B8
S11319D085B120911A0190E0022E02C09595879559
S11319E00A94E2F780FF0BC035B181E090E002C0B9
S11319F0880F991F2A95E2F78095832385B9209152
S1131A008400309185008091BD039091BE03281716
S1131A103907B8F085B12091240190E0022E02C06C
S1131A20959587950A94E2F780FF0BC035B181E064
S1131A3090E002C0880F991F2A95E2F780958323CE
S1131A4085B920918400309185008091BF039091E5
S1131A50C00328173907B8F085B120912E0190E012
S1131A60022E02C0959587950A94E2F780FF0BC079
S1131A7035B181E090E002C0880F991F2A95E2F702
S1131A808095832385B98091840090918500883E58
S1131A90934040F080918400909185008135944179
S1131AA008F437CF9091440380910501981708F406
S1131AB056C00F2EFBE1CF2EF3E0DF2EF02DF60102
S1131AC0808191810F2EF7EBEF2EF3E0FF2EF02DA6
S1131AD0F701408151810DEC13E020E061E00E94A8
S1131AE0F50AF70191838083F60182819381F701DE
S1131AF04281538121E062E00E94F50AF701938359
S1131B008283F60186819781F7014481558120E023
S1131B1063E00E94F50AF70195838483F6018481CA
S1131B209581F7014681578120E064E00E94F50A1F
S1131B30F70197838683F60180859185F7014085B7
S1131B40518520E065E00E94F50AF70191878087BE
S1131B50C8010E94F30B0E94350C1092440390912B
S1131B600E0380910001981710F180E00E94920109
S1131B700BE113E0F8019183808381E00E949201DC
S1131B80F8019383828382E00E949201F801958395
S1131B90848383E00E949201F8019783868384E022
S1131BA00E949201F8019187808710920E03809120
S1131BB0AA03813009F0ADCE6BEA73E085E493E0CB
S1131BC00E941201EBEAF3E083858F9382858F9361
S1131BD081858F9380858F9387818F9386818F935F
S1131BE085818F9384818F9383818F9382818F9357
S1131BF081818F9380818F9388E491E09F938F9369
S1131C008E01055A1E4F1F930F930E943C15C80165
S1131C100E94050168E273E08BEA93E00E94F103FD
S1131C200FB6F894DEBF0FBECDBF882359F01BC09A
S1131C30E82FF0E0E353FC4F1082158291E0928785
S1131C408F5F01C080E0853098F38EE2E6E7F2E032
S1131C50DE019F9601900D928A95E1F7CE018F9651
S1131C600E940501BEC121E041EC53E06FE073E046
S1131C7088E293E00E946A06882359F01BC0E82F8B
S1131C80F0E0E353FC4F1082158291E092878F5F5E
S1131C9001C080E0853098F384E3E4EAF2E0DE01F9
S1131CA09F9601900D928A95E1F7CE018F960E943E
S1131CB0050197C1C090C103D090C203E090C30353
S1131CC0F090C4038090AB039090AC03A090AD035C
S1131CD0B090AE032AE037ED43E25CE3C501B40102
S1131CE00E946A109B01AC01C701B6010E94D71083
S1131CF088230CF47FC02AE037ED43E25CE3C5019E
S1131D00B4010E946B109B01AC01C701B6010E9493
S1131D10BA1218160CF470C0C090C503D090C60354
S1131D20E090C703F090C8038090AF039090B00395
S1131D30A090B103B090B2032AE037ED43E25CE334
S1131D40C501B4010E946A109B01AC01C701B60130
S1131D500E94D71088230CF451C02AE037ED43E2E7
S1131D605CE3C501B4010E946B109B01AC01C70187
S1131D70B6010E94BA1218160CF442C0C090C903EE
S1131D80D090CA03E090CB03F090CC038090B303CF
S1131D909090B403A090B503B090B6032AE037ED59
S1131DA043E25CE3C501B4010E946A109B01AC01EB
S1131DB0C701B6010E94D710882324F12AE037ED29
S1131DC043E25CE3C501B4010E946B109B01AC01CA
S1131DD0C701B6010E94BA121816B4F080E02EC0F2
S1131DE0E82FF0E0E353FC4F1082158291E09287D4
S1131DF08F5F0BC080E009C080E007C080E005C0B1
S1131E0080E003C080E001C080E0853048F384E3D3
S1131E10E8EDF2E0DE019F9601900D928A95E1F7DC
S1131E20CE018F960E940501DCC0E82FF0E0E35359
S1131E30FC4F91E09083158212868F5F8530A8F362
S1131E4008E213E0F80160897189828993890E940C
S1131E50D500562E472E382E292EF8016485758517
S1131E60868597850E94D500962E872E782E692E1A
S1131E70F80160857185828593850E94D500D62EF0
S1131E80C72EB82EA92EF8016481758186819781A9
S1131E900E94D500C956DE4F6883C759D140C85641
S1131EA0DE4F7883C859D140F82EE92EF8016081BD
S1131EB07181828193810E94D5002F923F924F922B
S1131EC05F926F927F928F929F92AF92BF92CF92C6
S1131ED0DF92EF92FF92C856DE4FF881C859D14085
S1131EE0FF93C956DE4F2881C759D1402F939F9342
S1131EF08F937F936F938AE791E09F938F938E01E3
S1131F0009551F4F1F930F930E943C15C8010E944F
S1131F100501E1ECF3E083858F9382858F938185BE
S1131F208F9380858F9387818F9386818F9385810B
S1131F308F9384818F9383818F9382818F93818107
S1131F408F9380818F9384ED91E09F938F930858B2
S1131F501F4F1F930F930E943C150FB6F894DEBFDA
S1131F600FBECDBFC8010E9405012DEC33E041E056
S1131F7067EB73E088E293E00E94920AE7EBF3E0F8
S1131F80A085B18566817781448155812281338121
S1131F9080819181FD01F695E795FF93EF93769506
S1131FA067957F936F93569547955F934F933695B7
S1131FB027953F932F93969587959F938F938EEFB5
S1131FC091E09F938F93005F11091F930F930E94D9
S1131FD03C15C8010E9405010FB6F894DEBF0FBE80
S1131FE0CDBF1092AA038DEC93E00E94F30B0E94E4
S1131FF0350CCE0101960E9405018BCC1F920F92E5
S11320000FB60F9211248F938FEF85B98F910F9094
S11320100FBE0F901F9018951F920F920FB60F923C
S113202011248F9380910E038F5F80930E03809110
S113203044038F5F809344038F910F900FBE0F90E2
S11320401F9018951F920F920FB60F9211248F9321
S11320509F93EF93FF938091C6009091AA039111EF
S11320601FC08A3091F08D3081F09091270394360F
S113207060F4E0912703F0E0EB5BFC4F80838091F8
S113208027038F5F809327030BC0E0912703F0E0C1
S1132090EB5BFC4F10821092270381E08093AA032C
S11320A0FF91EF919F918F910F900FBE0F901F9012
S11320B018959F939F770E94BF110F90002042F4C0
S11320C09058A2EA2AED3FE049E450E40E948210CD
S11320D00C946C125058BB27AA270E9482100C94AF
S11320E06C120E94331238F00E943A1220F039F434
S11320F09F3F19F426F40C9409120EF4E095E7FBC3
S11321000C940312E92F0E94911258F3BA17620734
S113211073078407950720F079F4A6F50C94B3129D
S11321200EF4E0950B2EBA2FA02D0B01B9019001EE
S11321300C01CA01A0011124FF27591B99F0593F32
S113214050F4503E68F11A16F040A22F232F342F7A
S11321504427585FF3CF469537952795A795F040C8
S11321605395C9F77EF41F16BA0B620B730B840BDD
S1132170BAF09150A1F0FF0FBB1F661F771F881F95
S1132180C2F70EC0BA0F621F731F841F48F48795ED
S113219077956795B795F7959E3F08F0B0CF9395DF
S11321A0880F08F09927EE0F9795879508950E9458
S11321B0DF1108F481E008950E944312E3950C9422
S11321C07D120E94F5100C946C120E943A1258F081
S11321D00E94331240F029F45F3F29F00C9403125B
S11321E051110C94B4120C9409120E94911268F3C8
S11321F09923B1F3552391F3951B550BBB27AA27BC
S113220062177307840738F09F5F5F4F220F331FF5
S1132210441FAA1FA9F335D00E2E3AF0E0E832D0BD
S113222091505040E695001CCAF72BD0FE2F29D0C0
S1132230660F771F881FBB1F261737074807AB0792
S1132240B0E809F0BB0B802DBF01FF2793585F4F07
S11322503AF09E3F510578F00C9403120C94B4129A
S11322605F3FE4F3983ED4F3869577956795B795E9
S1132270F7959F5FC9F7880F911D9695879597F9F4
S11322800895E1E0660F771F881FBB1F621773076D
S11322908407BA0720F0621B730B840BBA0BEE1F82
S11322A088F7E09508950E94991288F09F5798F056
S11322B0B92F9927B751B0F0E1F0660F771F881F47
S11322C0991F1AF0BA95C9F714C0B13091F00E9461
S11322D0B312B1E008950C94B312672F782F8827B6
S11322E0B85F39F0B93FCCF3869577956795B39588
S11322F0D9F73EF490958095709561957F4F8F4FF7
S11323009F4F0895E89409C097FB3EF490958095FB
S1132310709561957F4F8F4F9F4F9923A9F0F92FA7
S113232096E9BB279395F695879577956795B79525
S1132330F111F8CFFAF4BB0F11F460FF1BC06F5F0B
S11323407F4F8F4F9F4F16C0882311F096E911C01D
S1132350772321F09EE8872F762F05C0662371F03E
S113236096E8862F70E060E02AF09A95660F771F52
S1132370881FDAF7880F9695879597F90895DF9364
S1132380CF931F930F938B01EC01E8E6F0E00E94DA
S11323900C120E946C129801AE018B01EC0160E0FA
S11323A070E080E89FE30E946A100E948A139801FB
S11323B0AE010F911F91CF91DF910C94D212990F1E
S11323C00008550FAA0BE0E8FEEF16161706E807FB
S11323D0F907C0F012161306E407F50798F0621B1C
S11323E0730B840B950B39F40A2661F0232B242BF1
S11323F0252B21F408950A2609F4A140A6958FEF10
S1132400811D811D089597F99F6780E870E060E061
S113241008959FEF80EC0895DF93CF931F930F935C
S1132420FF92EF92DF927B018C01689406C0DA2E52
S1132430EF010E94D212FE01E894A59125913591F5
S113244045915591A6F3EF010E948210FE01970178
S1132450A801DA9469F7DF90EF90FF900F911F9134
S1132460CF91DF91089500240A94161617061806D2
S11324700906089500240A94121613061406050684
S113248008950C9409120E949912D8F3E894E0E09C
S1132490BB279F57F0F02AED3FE049EC06C0EE0F52
S11324A0BB0F661F771F881F28F0B23A62077307B5
S11324B0840728F0B25A620B730B840BE3959A9548
S11324C072F7803830F49A95BB0F661F771F881F08
S11324D0D2F790480C940B14092E0394000C11F4B9
S11324E0882352F0BB0F40F4BF2B11F460FF04C0EB
S11324F06F5F7F4F8F4F9F4F0895EF93E0FF07C0AB
S1132500A2EA2AED3FE049EC5FEB0E9482100E94B0
S11325106C120F90039401FC9058E0E9F0E00C94E5
S11325201E1457FD9058440F551F59F05F3F71F02A
S11325304795880F97FB991F61F09F3F79F0879526
S11325400895121613061406551FF2CF4695F1DFAF
S113255008C0161617061806991FF1CF869571053F
S1132560610508940895E894BB2766277727CB0173
S113257097F908950E94DF1108F48FEF08950E94DF
S1132580D2120C946C120E94331238F00E943A1248
S113259020F0952311F00C9403120C9409121124C9
S11325A00C94B4120E94911270F3959FC1F3950F8D
S11325B050E0551F629FF001729FBB27F00DB11DC3
S11325C0639FAA27F00DB11DAA1F649F6627B00D53
S11325D0A11D661F829F2227B00DA11D621F739F3C
S11325E0B00DA11D621F839FA00D611D221F749F4A
S11325F03327A00D611D231F849F600D211D822F91
S1132600762F6A2F11249F5750409AF0F1F08823B7
S11326104AF0EE0FFF1FBB1F661F771F881F9150E4
S11326205040A9F79E3F510580F00C9403120C947E
S1132630B4125F3FE4F3983ED4F38695779567959B
S1132640B795F795E7959F5FC1F7FE2B880F911D0E
S11326509695879597F90895FA01EE0FFF1F309626
S113266021053105A1F16115710561F48038BFE3DD
S11326709B0749F168949038810561F08038BFEF79
S11326809B0741F099234AF5FF3FE10531052105F8
S113269019F1E8940894E795D901AA2329F4AB2FFA
S11326A0BE2FF85FD0F310C0FF5F70F4A695E0F77B
S11326B0F73950F019F0FF3A38F49F779F930DD013
S11326C00F9007FC9058089546F00C94091260E0AE
S11326D070E080E89FE308954FE79F775F934F93FF
S11326E03F932F930E947C142F913F914F915F91C0
S11326F00E94BF120C94D7139F930E9443120F9011
S113270007FCEE5F0C947D1219F416F40C94091274
S11327100C9409140E949912B8F39923C9F3B6F3DF
S11327209F57550B87FF0E9417140024A0E640EA28
S1132730900180585695979528F4805C660F771F12
S1132740881F20F026173707480730F4621B730BE5
S1132750840B202931294A2BA69517940794202508
S113276031254A2758F7660F771F881F20F0261750
S11327703707480730F4620B730B840B200D311DAF
S1132780411DA09581F7B901842F9158880F969522
S1132790879508950E94DF11880B990B089529F4F9
S11327A016F00C9403120C94B3120C9409120E94A8
S11327B09912A8F39638A0F707F80F92E8942BE340
S11327C03AEA48EB5FE70E94D5120F920F920F92FC
S11327D04DB75EB70F920E94C414EEEAF0E00E9477
S11327E00C124F915F91EF91FF91E595EE1FFF1F42
S11327F049F0FE57E0684427EE0F441FFA95E1F7CD
S11328004195550B0E943E140F9007FE0C94321410
S113281008959F3F31F0915020F4879577956795FF
S1132820B795880F911D9695879597F908959150BE
S11328305040660F771F881FD2F708959F938F9398
S11328407F936F93FF93EF939B01AC010E94BF12A0
S1132850EF91FF910E940C122F913F914F915F9144
S11328600C94BF129B01AC0160E070E080E89FE330
S11328700C94E1100C9403120C9409140E94991204
S1132880D8F39923C9F3940F511DA3F391505040E9
S113289094F059F0882332F0660F771F881F915007
S11328A05040C1F79E3F51052CF7880F911D969516
S11328B0879597F908955F3FACF0983E9CF0BB274D
S11328C0869577956795B79508F4B1609395C1F7A8
S11328D0BB0F58F711F460FFE8CF6F5F7F4F8F4F46
S11328E09F4FE3CF0C94B41216F00C9409140C947B
S11328F0091268940C9403120E949912A8F3992364
S1132900C1F3AEF3DF93CF931F930F93FF92C92FBD
S1132910DD2788232AF02197660F771F881FDAF7AF
S113292020E030E040E85FEB9FE3883920F0803E10
S113293038F021968F770E946B10E6EDF0E004C02A
S11329400E946B10E3E0F1E00E940C128B01BE01C7
S1132950EC01FB2E6F5771097595771F880B990B46
S11329600E94841128E132E741E35FE30E94D2121E
S1132970AF2D9801AE01FF900F911F91CF91DF9180
S11329800E9482100C946C12FA01DC01AA0FBB1F86
S11329909B01AC01BF5728F42227332744275078E2
S11329A020C0B75190F4AB2F002446953795279556
S11329B0011CA395D2F3002071F0220F331F441F92
S11329C0B395DAF30ED00C946A1061307105A0E867
S11329D08A07B94630F49B01AC016627772788271C
S11329E09078309621F02083318342835383089575
S11329F0AA1BBB1B51E107C0AA1FBB1FA617B70721
S1132A0010F0A61BB70B881F991F5A95A9F780953C
S1132A109095BC01CD010895662777270C943F1744
S1132A204CE053E00E9415150895FA01A191B0817C
S1132A30009719F41097E1F0CD01DC01CD010D9060
S1132A40002011F4C00113C0FB012191222319F0CD
S1132A502015D9F7F3CFFB012191201519F41E920B
S1132A60119606C02223C1F70D900020A1F7D001D2
S1132A70FA01A193B0830895AEE0B0E0E2E4F5E199
S1132A800C947A190D891E8986E08C831A83098334
S1132A908FEF9FE79E838D83AE01475E5F4F6F8903
S1132AA0788DCE0101960E945E15EF81F885E00FC6
S1132AB0F11F10822E96E4E00C949619ABE0B0E07E
S1132AC0E4E6F5E10C946C196C017B018A01FC01CC
S1132AD017821682838181FFCCC1CE0101963C010D
S1132AE0F6019381F70193FD859193FF81917F0115
S1132AF0882309F4BAC1853239F493FD859193FF93
S1132B0081917F01853229F4B60190E00E94C418B6
S1132B10E7CF912C212C312CFFE1F315D8F08B3227
S1132B2079F038F4803279F08332A1F4232D2061D6
S1132B301DC08D3261F0803369F4232D216016C0ED
S1132B40832D8260382EE32DE4603E2E2AC0F32DBF
S1132B50F8601DC037FC2DC020ED280F2A3040F04E
S1132B608E32B9F436FC81C1232D2064322E19C073
S1132B7036FE06C08AE0989E200D1124922E11C0C4
S1132B80EAE02E9E200D1124222EF32DF0623F2E1A
S1132B9008C08C3621F4832D8068382E02C0883614
S1132BA041F4F70193FD859193FF81917F01811198
S1132BB0B3CF982F9F7D9554933028F40C5F1F4F0B
S1132BC09FE399830DC0833631F0833771F08335E9
S1132BD009F059C021C0F801808189830E5F1F4F1D
S1132BE088248394912C530113C02801F2E04F0EE2
S1132BF0511CF801A080B18036FE03C0692D70E03D
S1132C0002C06FEF7FEFC5010E94B9184C01820129
S1132C10F32DFF773F2E16C0280122E0420E511CEF
S1132C20F801A080B18036FE03C0692D70E002C0B7
S1132C306FEF7FEFC5010E94AE184C01F32DF068D1
S1132C403F2E820133FC1BC0822D90E0881699062A
S1132C50B0F4B60180E290E00E94C4182A94F4CF44
S1132C60F50137FC859137FE81915F01B60190E053
S1132C700E94C41821102A9421E0821A9108811418
S1132C80910471F7E8C0843611F0893641F5F801F2
S1132C9037FE07C060817181828193810C5F1F4F71
S1132CA008C060817181072E000C880B990B0E5FA0
S1132CB01F4FF32DFF763F2E97FF09C09095809507
S1132CC0709561957F4F8F4F9F4FF0683F2E2AE09C
S1132CD030E0A3010E940019882E861845C085376C
S1132CE031F4232D2F7EB22E2AE030E025C0932D1F
S1132CF0997FB92E8F36C1F018F4883579F0B5C0B4
S1132D00803719F0883721F0B0C0E92FE061BE2E7A
S1132D10B4FE0DC0FB2DF460BF2E09C034FE0AC002
S1132D20292F2660B22E06C028E030E005C020E13D
S1132D3030E002C020E132E0F801B7FE07C0608154
S1132D407181828193810C5F1F4F06C06081718104
S1132D5080E090E00E5F1F4FA3010E940019882EAF
S1132D608618FB2DFF773F2E36FE0DC0232D2E7FB8
S1132D70A22E891458F434FE0BC032FC09C0832DF2
S1132D808E7EA82E05C0B82CA32C03C0B82C01C07D
S1132D90B92CA4FE0FC0FE01E80DF11D8081803323
S1132DA021F49A2D997EA92E09C0A2FE06C0B394DF
S1132DB0B39404C08A2D867809F0B394A3FC11C09F
S1132DC0A0FE06C0B21488F4280C922C9B180EC0E6
S1132DD0B21460F4B60180E290E00E94C418B39487
S1132DE0F7CFB21418F42B1802C0982C212CA4FE8F
S1132DF010C0B60180E390E00E94C418A2FE17C080
S1132E00A1FC03C088E790E002C088E590E0B60129
S1132E100CC08A2D867859F0A1FE02C08BE201C055
S1132E2080E2A7FC8DE2B60190E00E94C4188914E8
S1132E3038F4B60180E390E00E94C4189A94F7CF66
S1132E408A94F301E80DF11D8081B60190E00E949F
S1132E50C4188110F5CF222009F442CEB60180E2D5
S1132E6090E00E94C4182A94F6CFF60186819781D7
S1132E7002C08FEF9FEF2B96E2E10C948819A0E03B
S1132E80B0E0E5E4F7E10C947219EC016B01611513
S1132E90710519F0FB01918380837E01FFEFEF1A26
S1132EA0FF0A0881802F90E00E948D18892B11F071
S1132EB0E701F3CF0D3239F47E0182E0E80EF11C14
S1132EC0098111E008C00B3229F47E0192E0E90E79
S1132ED0F11C098110E0E701219743E050E068E329
S1132EE071E0CE010E949618892BC1F4239645E027
S1132EF050E063E371E0CE010E949618892B09F437
S1132F002596C114D10419F0F601D183C08311119F
S1132F10F6C060E070E080E89FE7FAC043E050E06C
S1132F2060E371E0CE010E949618892B59F4C11414
S1132F30D10409F4E9C0F2E0EF0EF11CF601F182CC
S1132F40E082E2C020E030E0A901C0E0D0E0F70177
S1132F5080EDA82EA00E89E08A1530F1912F9260A1
S1132F60B92E812F887012FF04C0811124C02196CC
S1132F7022C081112197A5E0B0E00E946119DC0113
S1132F80CB01880F991FAA1FBB1F9C01AD012A0DFD
S1132F90311D411D511D283989E93807480789E148
S1132FA0580748F0166006C09EEFA9120AC013FD28
S1132FB040C01860B12E8FEFE81AF80A00811B2D6B
S1132FC0C6CF802F8F7D8534A1F580818D3211F499
S1132FD0106106C08B3221F0319661E070E004C0CC
S1132FE08181329662E070E080538A3018F0E61BEB
S1132FF0F70B1FC060E070E060389CE079075CF478
S1133000DB01AA0FBB1FAA0FBB1F6A0F7B1F660F32
S1133010771F680F711D3196DF0111978C918053D2
S11330208A3050F314FF03C0719561957109C60F7E
S1133030D71F11FF08C0C114D10429F0CF01019793
S1133040F60191838083CA01B9010E948211212F64
S11330502370233019F04B015C0106C04B015C0165
S1133060B7FAB094B7F8B09420E030E0A901C501F4
S1133070B4010E94D710882309F43EC0D7FF06C0CC
S1133080D195C195D1090FE411E002C007E611E022
S11330906801F8E1CF1AD10890E2E92EF12CCE159F
S11330A0DF0574F0F8012591359145915491C501DE
S11330B0B4010E94BF124B015C01CE19DF09EFCFAE
S11330C004501109F594E7940C151D0541F78A2D58
S11330D0880F8B2D881F8F3F49F020E030E0A90135
S11330E0C501B4010E94D710811106C082E290E0AC
S11330F09093DD038093DC03C501B40109C060E053
S113310070E080E89FEF04C060E070E080EC9FE72F
S1133110CDB7DEB7ECE00C948E1991110C945E19C6
S1133120803219F089508550C8F70895FB01DC01FD
S11331304150504088F08D9181341CF08B350CF453
S1133140805E659161341CF06B350CF4605E861B07
S1133150611171F3990B0895881BFCCFFC01059054
S1133160615070400110D8F7809590958E0F9F1F85
S11331700895FC016150704001900110D8F78095CA
S113318090958E0F9F1F08950F931F93CF93DF93F6
S1133190FB01238121FD03C08FEF9FEF2CC022FF91
S11331A016C046815781248135814217530744F460
S11331B0A081B1819D012F5F3F4F318320838C9388
S11331C0268137812F5F3F4F3783268314C08B01BD
S11331D0EC01FB010084F185E02D0995892BE1F6D2
S11331E0D80116968D919C911797019617969C93EA
S11331F08E931697CE01DF91CF911F910F91089571
S1133200FA01AA27283051F1203181F1E8946F9313
S11332106E7F6E5F7F4F8F4F9F4FAF4FB1E03ED0B9
S1133220B4E03CD0670F781F891F9A1FA11D680F57
S1133230791F8A1F911DA11D6A0F711D811D911D8A
S1133240A11D20D009F468943F912AE0269F1124FF
S11332503019305D3193DEF6CF010895462F477063
S1133260405D4193B3E00FD0C9F7F6CF462F4F70BE
S1133270405D4A3318F0495D31FD4052419302D01C
S1133280A9F7EACFB4E0A6959795879577956795C2
S1133290BA95C9F700976105710508959B01AC01C2
S11332A00A2E06945795479537952795BA95C9F7E9
S11332B0620F731F841F951FA01D089599278827E7
S11332C008950E94A319A59F900DB49F900DA49FEB
S11332D0800D911D112408952F923F924F925F9279
S11332E06F927F928F929F92AF92BF92CF92DF9212
S11332F0EF92FF920F931F93CF93DF93CDB7DEB777
S1133300CA1BDB0B0FB6F894DEBF0FBECDBF09940A
S11333102A88398848885F846E847D848C849B8461
S1133320AA84B984C884DF80EE80FD800C811B816F
S1133330AA81B981CE0FD11D0FB6F894DEBF0FBE9E
S1133340CDBFED010895A29FB001B39FC001A39F1B
S1133350700D811D1124911DB29F700D811D1124CA
S10B3360911D0895F894FFCFBC
S11333680B50FF011917000025064E024E02C00932
S1133378010012068E0906048E0902000A06440298
S11333884402C0090300FC087A0458022409040012
S1133398EA07D0034F06120800003E430000B44277
S11333A800002043DB0F494045696E676567656225
S11333B8656E65204B6F6F7264696E6174656E3AF1
S11333C820783D252E32662C20793D252E32662C18
S11333D8207A3D252E32660A0D00426572656368BF
S11333E86E6574652047656C656E6B77696E6B6591
S11333F86C3A205068695F313D252E32662C205086
S113340868695F32313D252E32662C205068695F29
S113341832323D252E32662C205068695F33313DA7
S1133428252E32662C205068695F33323D252E32B2
S1133438660A0D004265726563686E65746572207C
S11334485443503A20783D252E32662C20793D2568
S11334582E32662C207A3D252E32660A0D004265EE
S1133468726563686E6574652050756C736CE46E80
S113347867656E3A2050756C5F313D25692C205084
S1133488756C5F323D25692C2050756C5F333D2582
S1133498692C2050756C5F343D25692C2050756C5F
S11334A85F353D25690A0D004B6F6F7264696E6163
S11334B874656E205B6D6D5D20696D20466F726D5D
S11334C861743A20782C792C7A2065696E67656274
S11334D8656E3A0A0D004265726563686E756E67BB
S11334E8206465722047656C656E6B77696E6B65E1
S11334F86C206E69636874206D6F65676C696368B6
S1133508210A0D004265726563686E756E672064F2
S1133518657220566F727761657274736B696E6534
S11335286D6174696B206E69636874206D6F65677B
S11335386C696368210A0D004665686C65722062CF
S1133548656920646572204265726563686E756E8C
S1133558672064657220566F727761657274736B45
S10F3568696E656D6174696B210A0D00C9
S9030000FC
